{
  "address": "0x31c8eA068F1cDaf5A18306B275b5cd428D15d9f7",
  "abi": [
    {
      "inputs": [],
      "name": "ContentRequired",
      "type": "error"
    },
    {
      "inputs": [],
      "name": "InvalidContentMode",
      "type": "error"
    },
    {
      "inputs": [],
      "name": "InvalidWhisperType",
      "type": "error"
    },
    {
      "inputs": [],
      "name": "RecipientRequired",
      "type": "error"
    },
    {
      "inputs": [],
      "name": "UnauthorizedAccess",
      "type": "error"
    },
    {
      "inputs": [],
      "name": "WhisperAlreadyDeleted",
      "type": "error"
    },
    {
      "inputs": [],
      "name": "WhisperNotFound",
      "type": "error"
    },
    {
      "anonymous": false,
      "inputs": [
        {
          "indexed": true,
          "internalType": "uint256",
          "name": "whisperId",
          "type": "uint256"
        },
        {
          "indexed": true,
          "internalType": "address",
          "name": "grantee",
          "type": "address"
        }
      ],
      "name": "DecryptAccessGranted",
      "type": "event"
    },
    {
      "anonymous": false,
      "inputs": [
        {
          "indexed": true,
          "internalType": "uint256",
          "name": "whisperId",
          "type": "uint256"
        },
        {
          "indexed": true,
          "internalType": "address",
          "name": "revokee",
          "type": "address"
        }
      ],
      "name": "DecryptAccessRevoked",
      "type": "event"
    },
    {
      "anonymous": false,
      "inputs": [
        {
          "indexed": true,
          "internalType": "uint256",
          "name": "whisperId",
          "type": "uint256"
        }
      ],
      "name": "WhisperDeleted",
      "type": "event"
    },
    {
      "anonymous": false,
      "inputs": [
        {
          "indexed": true,
          "internalType": "uint256",
          "name": "whisperId",
          "type": "uint256"
        },
        {
          "indexed": true,
          "internalType": "address",
          "name": "author",
          "type": "address"
        },
        {
          "indexed": false,
          "internalType": "enum WhisperWall.WhisperType",
          "name": "whisperType",
          "type": "uint8"
        },
        {
          "indexed": false,
          "internalType": "enum WhisperWall.ContentMode",
          "name": "contentMode",
          "type": "uint8"
        }
      ],
      "name": "WhisperPosted",
      "type": "event"
    },
    {
      "anonymous": false,
      "inputs": [
        {
          "indexed": true,
          "internalType": "uint256",
          "name": "whisperId",
          "type": "uint256"
        },
        {
          "indexed": true,
          "internalType": "address",
          "name": "voter",
          "type": "address"
        },
        {
          "indexed": false,
          "internalType": "enum WhisperWall.VoteType",
          "name": "voteType",
          "type": "uint8"
        }
      ],
      "name": "WhisperVoted",
      "type": "event"
    },
    {
      "inputs": [
        {
          "internalType": "uint256",
          "name": "whisperId",
          "type": "uint256"
        }
      ],
      "name": "deleteWhisper",
      "outputs": [],
      "stateMutability": "nonpayable",
      "type": "function"
    },
    {
      "inputs": [
        {
          "internalType": "uint256",
          "name": "whisperId",
          "type": "uint256"
        }
      ],
      "name": "getMyVote",
      "outputs": [
        {
          "internalType": "enum WhisperWall.VoteType",
          "name": "",
          "type": "uint8"
        }
      ],
      "stateMutability": "view",
      "type": "function"
    },
    {
      "inputs": [
        {
          "internalType": "uint256",
          "name": "offset",
          "type": "uint256"
        },
        {
          "internalType": "uint256",
          "name": "limit",
          "type": "uint256"
        }
      ],
      "name": "getMyWhispers",
      "outputs": [
        {
          "internalType": "uint256[]",
          "name": "",
          "type": "uint256[]"
        }
      ],
      "stateMutability": "view",
      "type": "function"
    },
    {
      "inputs": [
        {
          "internalType": "uint256",
          "name": "offset",
          "type": "uint256"
        },
        {
          "internalType": "uint256",
          "name": "limit",
          "type": "uint256"
        }
      ],
      "name": "getPrivateInbox",
      "outputs": [
        {
          "internalType": "uint256[]",
          "name": "",
          "type": "uint256[]"
        }
      ],
      "stateMutability": "view",
      "type": "function"
    },
    {
      "inputs": [],
      "name": "getPublicWhisperCount",
      "outputs": [
        {
          "internalType": "uint256",
          "name": "",
          "type": "uint256"
        }
      ],
      "stateMutability": "view",
      "type": "function"
    },
    {
      "inputs": [
        {
          "internalType": "uint256",
          "name": "offset",
          "type": "uint256"
        },
        {
          "internalType": "uint256",
          "name": "limit",
          "type": "uint256"
        }
      ],
      "name": "getPublicWhispers",
      "outputs": [
        {
          "internalType": "uint256[]",
          "name": "",
          "type": "uint256[]"
        }
      ],
      "stateMutability": "view",
      "type": "function"
    },
    {
      "inputs": [],
      "name": "getTotalWhisperCount",
      "outputs": [
        {
          "internalType": "uint256",
          "name": "",
          "type": "uint256"
        }
      ],
      "stateMutability": "view",
      "type": "function"
    },
    {
      "inputs": [
        {
          "internalType": "uint256",
          "name": "whisperId",
          "type": "uint256"
        }
      ],
      "name": "getWhisper",
      "outputs": [
        {
          "internalType": "uint256",
          "name": "id",
          "type": "uint256"
        },
        {
          "internalType": "address",
          "name": "author",
          "type": "address"
        },
        {
          "internalType": "enum WhisperWall.WhisperType",
          "name": "whisperType",
          "type": "uint8"
        },
        {
          "internalType": "enum WhisperWall.ContentMode",
          "name": "contentMode",
          "type": "uint8"
        },
        {
          "internalType": "string",
          "name": "plainContent",
          "type": "string"
        },
        {
          "internalType": "euint256",
          "name": "encryptedContent",
          "type": "bytes32"
        },
        {
          "internalType": "address",
          "name": "recipient",
          "type": "address"
        },
        {
          "internalType": "string",
          "name": "tag",
          "type": "string"
        },
        {
          "internalType": "uint256",
          "name": "timestamp",
          "type": "uint256"
        },
        {
          "internalType": "bool",
          "name": "isAnonymous",
          "type": "bool"
        },
        {
          "internalType": "bool",
          "name": "isDeleted",
          "type": "bool"
        }
      ],
      "stateMutability": "view",
      "type": "function"
    },
    {
      "inputs": [
        {
          "internalType": "uint256",
          "name": "whisperId",
          "type": "uint256"
        }
      ],
      "name": "getWhisperVoteCount",
      "outputs": [
        {
          "internalType": "euint32",
          "name": "",
          "type": "bytes32"
        },
        {
          "internalType": "euint32",
          "name": "",
          "type": "bytes32"
        }
      ],
      "stateMutability": "view",
      "type": "function"
    },
    {
      "inputs": [
        {
          "internalType": "uint256",
          "name": "whisperId",
          "type": "uint256"
        },
        {
          "internalType": "address",
          "name": "targetAddress",
          "type": "address"
        }
      ],
      "name": "grantDecryptAccess",
      "outputs": [],
      "stateMutability": "nonpayable",
      "type": "function"
    },
    {
      "inputs": [
        {
          "internalType": "enum WhisperWall.WhisperType",
          "name": "whisperType",
          "type": "uint8"
        },
        {
          "internalType": "enum WhisperWall.ContentMode",
          "name": "contentMode",
          "type": "uint8"
        },
        {
          "internalType": "string",
          "name": "plainContent",
          "type": "string"
        },
        {
          "internalType": "externalEuint256",
          "name": "encryptedContentHandle",
          "type": "bytes32"
        },
        {
          "internalType": "bytes",
          "name": "inputProof",
          "type": "bytes"
        },
        {
          "internalType": "address",
          "name": "recipient",
          "type": "address"
        },
        {
          "internalType": "string",
          "name": "tag",
          "type": "string"
        },
        {
          "internalType": "bool",
          "name": "isAnonymous",
          "type": "bool"
        }
      ],
      "name": "postWhisper",
      "outputs": [
        {
          "internalType": "uint256",
          "name": "",
          "type": "uint256"
        }
      ],
      "stateMutability": "nonpayable",
      "type": "function"
    },
    {
      "inputs": [],
      "name": "protocolId",
      "outputs": [
        {
          "internalType": "uint256",
          "name": "",
          "type": "uint256"
        }
      ],
      "stateMutability": "pure",
      "type": "function"
    },
    {
      "inputs": [
        {
          "internalType": "uint256",
          "name": "whisperId",
          "type": "uint256"
        }
      ],
      "name": "requestDecryptAccess",
      "outputs": [],
      "stateMutability": "nonpayable",
      "type": "function"
    },
    {
      "inputs": [
        {
          "internalType": "uint256",
          "name": "whisperId",
          "type": "uint256"
        },
        {
          "internalType": "address",
          "name": "targetAddress",
          "type": "address"
        }
      ],
      "name": "revokeDecryptAccess",
      "outputs": [],
      "stateMutability": "nonpayable",
      "type": "function"
    },
    {
      "inputs": [
        {
          "internalType": "uint256",
          "name": "whisperId",
          "type": "uint256"
        },
        {
          "internalType": "enum WhisperWall.VoteType",
          "name": "voteType",
          "type": "uint8"
        }
      ],
      "name": "voteWhisper",
      "outputs": [],
      "stateMutability": "nonpayable",
      "type": "function"
    }
  ],
  "transactionHash": "0x25c49fa5db532f1360d63e4e0c4f2d23d4d597568451beeffcb6cdaf562321ee",
  "args": [],
  "numDeployments": 1,
  "solcInputHash": "cc12631bba398aa723f61fe8f08d228a",
  "bytecode": "0x608060405234610194575f6060610014610198565b8281528260208201528260408201520152731364cbbf2cdf5032c47d8226a6f6fbd2afcdacac6060610044610198565b73687820221192c5b662b25367f70076a37bc79b6c815273848b0066793bcc60346da1f49049357399b8d595602082015273a02cda4ca3a71d7c46997716f4283aa851c288126040820152015273687820221192c5b662b25367f70076a37bc79b6c60018060a01b03195f5160206118485f395f51905f525416175f5160206118485f395f51905f525573848b0066793bcc60346da1f49049357399b8d59560018060a01b03195f5160206118085f395f51905f525416175f5160206118085f395f51905f525573a02cda4ca3a71d7c46997716f4283aa851c2881260018060a01b03195f5160206118285f395f51905f525416175f5160206118285f395f51905f5255731364cbbf2cdf5032c47d8226a6f6fbd2afcdacac60018060a01b03195f5160206117e85f395f51905f525416175f5160206117e85f395f51905f525560405161161c90816101cc8239f35b5f80fd5b60405190608082016001600160401b038111838210176101b757604052565b634e487b7160e01b5f52604160045260245ffdfe60806040526004361015610011575f80fd5b5f5f3560e01c8063422c7bb914610d415780634e9d06bf14610d1d57806364bc511c14610c205780636cef312014610c0457806379b6945714610be757806385b2a8d814610b6e57806389bfe3f214610b545780639e5788a614610b10578063a29979911461090d578063bffc5745146108ef578063da1f12ab146108d3578063da86be12146108b9578063dc5ffad914610893578063e283af7f1461010b5763f76b4049146100bf575f80fd5b346101085760203660031901126101085760409060043581526004602052206001600160a01b0333165f5260205261010460ff60405f20541660405191829182610e6d565b0390f35b80fd5b503461074357610100366003190112610743576004356002811015610743576024359060028210156107435760443567ffffffffffffffff811161074357610157903690600401610e3f565b60849391933567ffffffffffffffff81116107435761017a903690600401610e3f565b94909160a4356001600160a01b038116938482036107435760c43567ffffffffffffffff8111610743576101b2903690600401610e3f565b92909860e43590811515809203610743576101cc8a610dc2565b60018a1491828061088b575b61087c576101e58a610dc2565b8915908180610874575b610865575f549c5f198e14610851578d978c8e60018b015f558a5f52600160205260405f209a8b5560018b01916001600160a01b03331673ffffffffffffffffffffffffffffffffffffffff1984541617835561024b82610dc2565b7fffffffffffffffffffff0000ffffffffffffffffffffffffffffffffffffffff74ff000000000000000000000000000000000000000075ff0000000000000000000000000000000000000000008554936102a581610dc2565b60a81b169360a01b16911617179055600489018c73ffffffffffffffffffffffffffffffffffffffff19825416179055600589019167ffffffffffffffff821161077b5781906102f58454610efd565b601f8111610801575b505f90601f831160011461079a575f9261078f575b50508160011b915f199060031b1c19161790555b426006880155600787019060ff825491169061ffff191617905561034a8a610dc2565b156105b657505050506002019167ffffffffffffffff82116105a25781906103728454610efd565b601f8111610552575b508890601f83116001146104ed5789926104e2575b50508160011b915f199060031b1c19161790555b6103ac611403565b848652600260205260408620556103c1611403565b8486526003602052604086205583855260026020526103e560408620543090611594565b83855260036020526103fb306040872054611594565b61040483610dc2565b826104c15750600554680100000000000000008110156104ad578360406020966104558361043d8660016104629801600555600561105b565b90919082549060031b91821b915f19901b1916179055565b338152600688522061134a565b6040519161046f81610dc2565b825261047a81610dc2565b83820152817f531ab65dc8f4b933eb09463aa2dd2477b9a2d295731f3c73af137c73fd7f44b460403393a3604051908152f35b634e487b7160e01b85526041600452602485fd5b836040866104629360209852600788526104dd8383832061134a565b610455565b013590505f80610390565b848a5260208a20925090601f1984168a5b81811061053a5750908460019594939210610521575b505050811b0190556103a4565b01355f19600384901b60f8161c191690555f8080610514565b919360206001819287870135815501950192016104fe565b90915083895260208920601f840160051c81019160208510610598575b90601f859493920160051c01905b81811061058a575061037b565b8a815584935060010161057d565b909150819061056f565b634e487b7160e01b88526041600452602488fd5b67ffffffffffffffff9194939650809295501161077b57604051946105e5601f8301601f191660200187610f35565b818652368282011161074357855f60208481956106639583859c0137830101526001600160a01b037f9e7b61f58c47dc699ac88507c4f5bb9f121c03808c5676a8078fe583e464970154169060405197888094819363196d0b9b60e01b83526064356004840152336024840152608060448401526084830190610dcc565b6008606483015203925af1938415610738575f94610747575b506001600160a01b037f9e7b61f58c47dc699ac88507c4f5bb9f121c03808c5676a8078fe583e46497005416803b1561074357604051630f8e573b60e21b815260048101869052336024820152905f908290604490829084905af1801561073857610722575b506003849101556106f33084611594565b6106fd3384611594565b61070686610dc2565b610712575b50506103a4565b61071b91611594565b5f8061070b565b61072f9199505f90610f35565b5f9760036106e2565b6040513d5f823e3d90fd5b5f80fd5b9093506020813d602011610773575b8161076360209383610f35565b810103126107435751925f61067c565b3d9150610756565b634e487b7160e01b5f52604160045260245ffd5b013590505f80610313565b909150601f19831691845f5260205f20925f5b8181106107e957509084600195949392106107d0575b505050811b019055610327565b01355f19600384901b60f8161c191690555f80806107c3565b919360206001819287870135815501950192016107ad565b909150835f5260205f20601f840160051c81019160208510610847575b90601f859493920160051c01905b81811061083957506102fe565b5f815584935060010161082c565b909150819061081e565b634e487b7160e01b5f52601160045260245ffd5b632981b76960e21b5f5260045ffd5b5087156101ef565b631dae7d0560e11b5f5260045ffd5b5088156101d8565b34610743576101046108ad6108a736610df0565b906112a7565b60405191829182610e06565b34610743576101046108ad6108cd36610df0565b90611217565b34610743575f3660031901126107435760206040516127118152f35b346107435760203660031901126107435761090b60043561114f565b005b34610743576040366003190112610743576024356004356003821015610743575f54811015610b0157805f52600160205260ff600760405f20015460081c16610af257805f52600460205260405f206001600160a01b0333165f5260205260ff60405f2054166003811015610a795760018103610ac15750805f5260026020526109a360405f205461099d611372565b90611464565b815f52600260205260405f20555b5f60018303610a8d57815f5260026020526109d860405f20546109d2611372565b906114fc565b825f52600260205260405f20555b815f52600460205260405f206001600160a01b0333165f5260205260405f2090610a795760ff1981541660ff8416179055805f526002602052610a2e60405f20543090611594565b805f526003602052610a443060405f2054611594565b7ff1ac4bf614888bf72d60ea433b34b6b65de30d23d8b56a74125542546053e13660405180610a74339582610e6d565b0390a3005b634e487b7160e01b5f52602160045260245ffd5b505f600283036109e657815f526003602052610aaf60405f20546109d2611372565b825f52600360205260405f20556109e6565b6002036109b157805f526003602052610ae060405f205461099d611372565b815f52600360205260405f20556109b1565b63137bc3f960e11b5f5260045ffd5b632f50a84960e21b5f5260045ffd5b34610743576020366003190112610743576004355f54811015610b0157806040915f526002602052815f2054905f526003602052815f205482519182526020820152f35b34610743576101046108ad610b6836610df0565b90611098565b3461074357602036600319011261074357600435805f52600160205260405f206001600160a01b036001820154163303610bd857600701805461ff0019166101001790557f154ce5e88e84159b0c6dee82649819559ff25274719baa6525844fd00ffa1dfa5f80a2005b631a27eac360e11b5f5260045ffd5b34610743575f366003190112610743576020600554604051908152f35b34610743575f3660031901126107435760205f54604051908152f35b34610743576020366003190112610743576004355f54811015610b01575f52600160205260405f20805460018201549160ff808460a01c16610cfb828660a81c16916003850154906001600160a01b03600487015416610ce3600688015497600781015496610c9d6005610c9660028501610f57565b9301610f57565b946001600160a01b036040519d8e9d8e521660208d0152610cbd81610dc2565b60408c0152610ccb81610dc2565b60608b015261016060808b01526101608a0190610dcc565b9260a089015260c088015286820360e0880152610dcc565b92610100850152818116151561012085015260081c1615156101408301520390f35b346107435760403660031901126107435761090b610d39610dac565b600435610e80565b3461074357604036600319011261074357600435610d5d610dac565b815f5260016020526001600160a01b03600160405f200154163303610bd8576001600160a01b0316907f52e027810c27472ee9b83f7af01e1cc28766bc4a664ac7a1d56ca3fee81e3c0a5f80a3005b602435906001600160a01b038216820361074357565b60021115610a7957565b805180835260209291819084018484015e5f828201840152601f01601f1916010190565b6040906003190112610743576004359060243590565b60206040818301928281528451809452019201905f5b818110610e295750505090565b8251845260209384019390920191600101610e1c565b9181601f840112156107435782359167ffffffffffffffff8311610743576020838186019501011161074357565b919060208301926003821015610a795752565b90815f52600160205260405f20906001820154336001600160a01b03821603610bd85760ff60019160a81c16610eb581610dc2565b03610ef857610ed08160036001600160a01b03940154611594565b16907f93b6a2fefb7fa8245094aee0d8b8eb3c7f76053d59678f43225dde21be03830f5f80a3565b505050565b90600182811c92168015610f2b575b6020831014610f1757565b634e487b7160e01b5f52602260045260245ffd5b91607f1691610f0c565b90601f8019910116810190811067ffffffffffffffff82111761077b57604052565b9060405191825f825492610f6a84610efd565b8084529360018116908115610fd55750600114610f91575b50610f8f92500383610f35565b565b90505f9291925260205f20905f915b818310610fb9575050906020610f8f928201015f610f82565b6020919350806001915483858901015201910190918492610fa0565b905060209250610f8f94915060ff191682840152151560051b8201015f610f82565b67ffffffffffffffff811161077b5760051b60200190565b9061101982610ff7565b6110266040519182610f35565b8281528092611037601f1991610ff7565b0190602036910137565b9190820180921161085157565b9190820391821161085157565b8054821015611070575f5260205f2001905f90565b634e487b7160e01b5f52603260045260245ffd5b80518210156110705760209160051b010190565b335f52600760205260405f2080549283831015611133576110b99083611041565b8284821161112b575b6110cb9161104e565b906110d58261100f565b935f1981019081115f5b8481106110ef5750505050505090565b81610851578061111361110d6001936111088a8861104e565b61104e565b8661105b565b90549060031b1c611124828a611084565b52016110df565b8491506110c2565b50505050604051611145602082610f35565b5f81525f36813790565b805f52600160205260405f2060ff600782015460081c16610af257600181018054600160ff8260a81c1661118281610dc2565b036112115760a01c60ff1661119681610dc2565b15611201576001600160a01b03905416331480156111eb575b15610bd8576111c390600333910154611594565b33907f93b6a2fefb7fa8245094aee0d8b8eb3c7f76053d59678f43225dde21be03830f5f80a3565b506001600160a01b0360048201541633146111af565b5060036111c39101543390611594565b50505050565b335f52600660205260405f2080549283831015611133576112389083611041565b8284821161129f575b61124a9161104e565b906112548261100f565b935f1981019081115f5b84811061126e5750505050505090565b81610851578061128761110d6001936111088a8861104e565b90549060031b1c611298828a611084565b520161125e565b849150611241565b6005549182821015611339576112bd9082611041565b81838211611331575b6112cf9161104e565b6112d88161100f565b925f925f198201918211600554945b8481106112f75750505050505090565b816108515761130a81611108858761104e565b90868210156110705760019160055f5260205f20015461132a828a611084565b52016112e7565b8391506112c6565b505050604051611145602082610f35565b908154916801000000000000000083101561077b578261043d916001610f8f9501815561105b565b5f60206001600160a01b037f9e7b61f58c47dc699ac88507c4f5bb9f121c03808c5676a8078fe583e46497015416604460405180948193639cd07acb60e01b835260016004840152600460248401525af1908115610738575f916113d4575090565b90506020813d6020116113fb575b816113ef60209383610f35565b81010312610743575190565b3d91506113e2565b5f60206001600160a01b037f9e7b61f58c47dc699ac88507c4f5bb9f121c03808c5676a8078fe583e46497015416604460405180948193639cd07acb60e01b8352816004840152600460248401525af1908115610738575f916113d4575090565b9081156114ec575b80156114da575b60209060646001600160a01b037f9e7b61f58c47dc699ac88507c4f5bb9f121c03808c5676a8078fe583e46497015416935f60405195869485936303056db360e31b8552600485015260248401528160448401525af1908115610738575f916113d4575090565b5060206114e5611403565b9050611473565b90506114f6611403565b9061146c565b908115611584575b8015611572575b60209060646001600160a01b037f9e7b61f58c47dc699ac88507c4f5bb9f121c03808c5676a8078fe583e46497015416935f604051958694859363022f65e760e31b8552600485015260248401528160448401525af1908115610738575f916113d4575090565b50602061157d611403565b905061150b565b905061158e611403565b90611504565b6001600160a01b037f9e7b61f58c47dc699ac88507c4f5bb9f121c03808c5676a8078fe583e4649700541691823b1561074357604051635ca4b5b160e11b815260048101929092526001600160a01b03166024820152905f908290604490829084905af18015610738576116055750565b5f610f8f91610f3556fea164736f6c634300081b000a9e7b61f58c47dc699ac88507c4f5bb9f121c03808c5676a8078fe583e46497039e7b61f58c47dc699ac88507c4f5bb9f121c03808c5676a8078fe583e46497019e7b61f58c47dc699ac88507c4f5bb9f121c03808c5676a8078fe583e46497029e7b61f58c47dc699ac88507c4f5bb9f121c03808c5676a8078fe583e4649700",
  "devdoc": {
    "author": "WhisperWall Team",
    "kind": "dev",
    "methods": {
      "deleteWhisper(uint256)": {
        "params": {
          "whisperId": "The whisper ID to delete"
        }
      },
      "getMyVote(uint256)": {
        "params": {
          "whisperId": "The whisper ID"
        },
        "returns": {
          "_0": "voteType The vote type (NONE, LIKE, or DISLIKE)"
        }
      },
      "getMyWhispers(uint256,uint256)": {
        "params": {
          "limit": "Maximum number of whispers to return",
          "offset": "Starting index"
        },
        "returns": {
          "_0": "whisperIds Array of whisper IDs"
        }
      },
      "getPrivateInbox(uint256,uint256)": {
        "params": {
          "limit": "Maximum number of whispers to return",
          "offset": "Starting index"
        },
        "returns": {
          "_0": "whisperIds Array of whisper IDs"
        }
      },
      "getPublicWhisperCount()": {
        "returns": {
          "_0": "Total number of public whispers"
        }
      },
      "getPublicWhispers(uint256,uint256)": {
        "params": {
          "limit": "Maximum number of whispers to return",
          "offset": "Starting index"
        },
        "returns": {
          "_0": "whisperIds Array of whisper IDs"
        }
      },
      "getTotalWhisperCount()": {
        "returns": {
          "_0": "Total number of whispers posted"
        }
      },
      "getWhisper(uint256)": {
        "params": {
          "whisperId": "The whisper ID"
        },
        "returns": {
          "author": "Author address",
          "contentMode": "PLAIN or ENCRYPTED",
          "encryptedContent": "Encrypted content handle",
          "id": "Whisper ID",
          "isAnonymous": "Anonymous flag",
          "isDeleted": "Deleted flag",
          "plainContent": "Plain text content",
          "recipient": "Recipient address",
          "tag": "Message tag",
          "timestamp": "Timestamp",
          "whisperType": "PUBLIC or PRIVATE"
        }
      },
      "getWhisperVoteCount(uint256)": {
        "params": {
          "whisperId": "The whisper ID"
        },
        "returns": {
          "_0": "likeCount Encrypted like count",
          "_1": "dislikeCount Encrypted dislike count"
        }
      },
      "grantDecryptAccess(uint256,address)": {
        "params": {
          "targetAddress": "Address to grant access",
          "whisperId": "The whisper ID"
        }
      },
      "postWhisper(uint8,uint8,string,bytes32,bytes,address,string,bool)": {
        "params": {
          "contentMode": "PLAIN or ENCRYPTED",
          "encryptedContentHandle": "Encrypted content handle (used if contentMode is ENCRYPTED)",
          "inputProof": "Input proof for encrypted content",
          "isAnonymous": "Whether to display as anonymous",
          "plainContent": "Plain text content (used if contentMode is PLAIN)",
          "recipient": "Recipient address (required for PRIVATE whispers)",
          "tag": "Message tag",
          "whisperType": "PUBLIC or PRIVATE"
        }
      },
      "requestDecryptAccess(uint256)": {
        "params": {
          "whisperId": "ID of the whisper"
        }
      },
      "revokeDecryptAccess(uint256,address)": {
        "params": {
          "targetAddress": "Address to revoke access from",
          "whisperId": "The whisper ID"
        }
      },
      "voteWhisper(uint256,uint8)": {
        "params": {
          "voteType": "LIKE or DISLIKE",
          "whisperId": "The whisper ID"
        }
      }
    },
    "title": "WhisperWall - Privacy-Preserving Message Board",
    "version": 1
  },
  "userdoc": {
    "kind": "user",
    "methods": {
      "deleteWhisper(uint256)": {
        "notice": "Soft delete a whisper (only author can delete)"
      },
      "getMyVote(uint256)": {
        "notice": "Get caller's vote status for a whisper"
      },
      "getMyWhispers(uint256,uint256)": {
        "notice": "Get whispers posted by the caller"
      },
      "getPrivateInbox(uint256,uint256)": {
        "notice": "Get private whispers received by the caller"
      },
      "getPublicWhisperCount()": {
        "notice": "Get total public whisper count"
      },
      "getPublicWhispers(uint256,uint256)": {
        "notice": "Get public whispers with pagination"
      },
      "getTotalWhisperCount()": {
        "notice": "Get total whisper count"
      },
      "getWhisper(uint256)": {
        "notice": "Get whisper details by ID"
      },
      "getWhisperVoteCount(uint256)": {
        "notice": "Get vote counts for a whisper (returns encrypted handles)"
      },
      "grantDecryptAccess(uint256,address)": {
        "notice": "Grant decrypt access to an address for an encrypted whisper"
      },
      "postWhisper(uint8,uint8,string,bytes32,bytes,address,string,bool)": {
        "notice": "Post a new whisper"
      },
      "requestDecryptAccess(uint256)": {
        "notice": "Request decryption access for a PUBLIC encrypted whisper (anyone can call)"
      },
      "revokeDecryptAccess(uint256,address)": {
        "notice": "Revoke decrypt access (note: cannot revoke ACL permissions, only emit event)"
      },
      "voteWhisper(uint256,uint8)": {
        "notice": "Vote on a whisper (like or dislike)"
      }
    },
    "notice": "A decentralized message board supporting public/private and plain/encrypted messages using FHEVM",
    "version": 1
  },
  "storageLayout": {
    "storage": [
      {
        "astId": 39184,
        "contract": "contracts/WhisperWall.sol:WhisperWall",
        "label": "_whisperIdCounter",
        "offset": 0,
        "slot": "0",
        "type": "t_uint256"
      },
      {
        "astId": 39189,
        "contract": "contracts/WhisperWall.sol:WhisperWall",
        "label": "_whispers",
        "offset": 0,
        "slot": "1",
        "type": "t_mapping(t_uint256,t_struct(Whisper)39182_storage)"
      },
      {
        "astId": 39194,
        "contract": "contracts/WhisperWall.sol:WhisperWall",
        "label": "_likeCount",
        "offset": 0,
        "slot": "2",
        "type": "t_mapping(t_uint256,t_userDefinedValueType(euint32)40311)"
      },
      {
        "astId": 39199,
        "contract": "contracts/WhisperWall.sol:WhisperWall",
        "label": "_dislikeCount",
        "offset": 0,
        "slot": "3",
        "type": "t_mapping(t_uint256,t_userDefinedValueType(euint32)40311)"
      },
      {
        "astId": 39206,
        "contract": "contracts/WhisperWall.sol:WhisperWall",
        "label": "_votes",
        "offset": 0,
        "slot": "4",
        "type": "t_mapping(t_uint256,t_mapping(t_address,t_enum(VoteType)39156))"
      },
      {
        "astId": 39209,
        "contract": "contracts/WhisperWall.sol:WhisperWall",
        "label": "_publicWhisperIds",
        "offset": 0,
        "slot": "5",
        "type": "t_array(t_uint256)dyn_storage"
      },
      {
        "astId": 39214,
        "contract": "contracts/WhisperWall.sol:WhisperWall",
        "label": "_userWhisperIds",
        "offset": 0,
        "slot": "6",
        "type": "t_mapping(t_address,t_array(t_uint256)dyn_storage)"
      },
      {
        "astId": 39219,
        "contract": "contracts/WhisperWall.sol:WhisperWall",
        "label": "_privateInboxIds",
        "offset": 0,
        "slot": "7",
        "type": "t_mapping(t_address,t_array(t_uint256)dyn_storage)"
      }
    ],
    "types": {
      "t_address": {
        "encoding": "inplace",
        "label": "address",
        "numberOfBytes": "20"
      },
      "t_array(t_uint256)dyn_storage": {
        "base": "t_uint256",
        "encoding": "dynamic_array",
        "label": "uint256[]",
        "numberOfBytes": "32"
      },
      "t_bool": {
        "encoding": "inplace",
        "label": "bool",
        "numberOfBytes": "1"
      },
      "t_enum(ContentMode)39152": {
        "encoding": "inplace",
        "label": "enum WhisperWall.ContentMode",
        "numberOfBytes": "1"
      },
      "t_enum(VoteType)39156": {
        "encoding": "inplace",
        "label": "enum WhisperWall.VoteType",
        "numberOfBytes": "1"
      },
      "t_enum(WhisperType)39149": {
        "encoding": "inplace",
        "label": "enum WhisperWall.WhisperType",
        "numberOfBytes": "1"
      },
      "t_mapping(t_address,t_array(t_uint256)dyn_storage)": {
        "encoding": "mapping",
        "key": "t_address",
        "label": "mapping(address => uint256[])",
        "numberOfBytes": "32",
        "value": "t_array(t_uint256)dyn_storage"
      },
      "t_mapping(t_address,t_enum(VoteType)39156)": {
        "encoding": "mapping",
        "key": "t_address",
        "label": "mapping(address => enum WhisperWall.VoteType)",
        "numberOfBytes": "32",
        "value": "t_enum(VoteType)39156"
      },
      "t_mapping(t_uint256,t_mapping(t_address,t_enum(VoteType)39156))": {
        "encoding": "mapping",
        "key": "t_uint256",
        "label": "mapping(uint256 => mapping(address => enum WhisperWall.VoteType))",
        "numberOfBytes": "32",
        "value": "t_mapping(t_address,t_enum(VoteType)39156)"
      },
      "t_mapping(t_uint256,t_struct(Whisper)39182_storage)": {
        "encoding": "mapping",
        "key": "t_uint256",
        "label": "mapping(uint256 => struct WhisperWall.Whisper)",
        "numberOfBytes": "32",
        "value": "t_struct(Whisper)39182_storage"
      },
      "t_mapping(t_uint256,t_userDefinedValueType(euint32)40311)": {
        "encoding": "mapping",
        "key": "t_uint256",
        "label": "mapping(uint256 => euint32)",
        "numberOfBytes": "32",
        "value": "t_userDefinedValueType(euint32)40311"
      },
      "t_string_storage": {
        "encoding": "bytes",
        "label": "string",
        "numberOfBytes": "32"
      },
      "t_struct(Whisper)39182_storage": {
        "encoding": "inplace",
        "label": "struct WhisperWall.Whisper",
        "members": [
          {
            "astId": 39158,
            "contract": "contracts/WhisperWall.sol:WhisperWall",
            "label": "id",
            "offset": 0,
            "slot": "0",
            "type": "t_uint256"
          },
          {
            "astId": 39160,
            "contract": "contracts/WhisperWall.sol:WhisperWall",
            "label": "author",
            "offset": 0,
            "slot": "1",
            "type": "t_address"
          },
          {
            "astId": 39163,
            "contract": "contracts/WhisperWall.sol:WhisperWall",
            "label": "whisperType",
            "offset": 20,
            "slot": "1",
            "type": "t_enum(WhisperType)39149"
          },
          {
            "astId": 39166,
            "contract": "contracts/WhisperWall.sol:WhisperWall",
            "label": "contentMode",
            "offset": 21,
            "slot": "1",
            "type": "t_enum(ContentMode)39152"
          },
          {
            "astId": 39168,
            "contract": "contracts/WhisperWall.sol:WhisperWall",
            "label": "plainContent",
            "offset": 0,
            "slot": "2",
            "type": "t_string_storage"
          },
          {
            "astId": 39171,
            "contract": "contracts/WhisperWall.sol:WhisperWall",
            "label": "encryptedContent",
            "offset": 0,
            "slot": "3",
            "type": "t_userDefinedValueType(euint256)40367"
          },
          {
            "astId": 39173,
            "contract": "contracts/WhisperWall.sol:WhisperWall",
            "label": "recipient",
            "offset": 0,
            "slot": "4",
            "type": "t_address"
          },
          {
            "astId": 39175,
            "contract": "contracts/WhisperWall.sol:WhisperWall",
            "label": "tag",
            "offset": 0,
            "slot": "5",
            "type": "t_string_storage"
          },
          {
            "astId": 39177,
            "contract": "contracts/WhisperWall.sol:WhisperWall",
            "label": "timestamp",
            "offset": 0,
            "slot": "6",
            "type": "t_uint256"
          },
          {
            "astId": 39179,
            "contract": "contracts/WhisperWall.sol:WhisperWall",
            "label": "isAnonymous",
            "offset": 0,
            "slot": "7",
            "type": "t_bool"
          },
          {
            "astId": 39181,
            "contract": "contracts/WhisperWall.sol:WhisperWall",
            "label": "isDeleted",
            "offset": 1,
            "slot": "7",
            "type": "t_bool"
          }
        ],
        "numberOfBytes": "256"
      },
      "t_uint256": {
        "encoding": "inplace",
        "label": "uint256",
        "numberOfBytes": "32"
      },
      "t_userDefinedValueType(euint256)40367": {
        "encoding": "inplace",
        "label": "euint256",
        "numberOfBytes": "32"
      },
      "t_userDefinedValueType(euint32)40311": {
        "encoding": "inplace",
        "label": "euint32",
        "numberOfBytes": "32"
      }
    }
  }
}